{
  "_format": "hh-sol-artifact-1",
  "contractName": "LudoGame",
  "sourceName": "contracts/Ludo.sol",
  "abi": [
    {
      "anonymous": false,
      "inputs": [
        {
          "indexed": true,
          "internalType": "address",
          "name": "player",
          "type": "address"
        },
        {
          "indexed": false,
          "internalType": "uint8",
          "name": "diceResult",
          "type": "uint8"
        },
        {
          "indexed": false,
          "internalType": "uint8",
          "name": "newPosition",
          "type": "uint8"
        }
      ],
      "name": "DiceRolled",
      "type": "event"
    },
    {
      "inputs": [],
      "name": "currentPlayerIndex",
      "outputs": [
        {
          "internalType": "uint8",
          "name": "",
          "type": "uint8"
        }
      ],
      "stateMutability": "view",
      "type": "function"
    },
    {
      "inputs": [],
      "name": "gameEnded",
      "outputs": [
        {
          "internalType": "bool",
          "name": "",
          "type": "bool"
        }
      ],
      "stateMutability": "view",
      "type": "function"
    },
    {
      "inputs": [],
      "name": "gameStarted",
      "outputs": [
        {
          "internalType": "bool",
          "name": "",
          "type": "bool"
        }
      ],
      "stateMutability": "view",
      "type": "function"
    },
    {
      "inputs": [],
      "name": "maxNumberOfPlayers",
      "outputs": [
        {
          "internalType": "uint8",
          "name": "",
          "type": "uint8"
        }
      ],
      "stateMutability": "view",
      "type": "function"
    },
    {
      "inputs": [
        {
          "internalType": "address",
          "name": "",
          "type": "address"
        }
      ],
      "name": "playerPositions",
      "outputs": [
        {
          "internalType": "uint8",
          "name": "",
          "type": "uint8"
        }
      ],
      "stateMutability": "view",
      "type": "function"
    },
    {
      "inputs": [
        {
          "internalType": "uint256",
          "name": "",
          "type": "uint256"
        }
      ],
      "name": "players",
      "outputs": [
        {
          "internalType": "address",
          "name": "",
          "type": "address"
        }
      ],
      "stateMutability": "view",
      "type": "function"
    },
    {
      "inputs": [],
      "name": "registerPlayer",
      "outputs": [],
      "stateMutability": "nonpayable",
      "type": "function"
    },
    {
      "inputs": [],
      "name": "rollDice",
      "outputs": [],
      "stateMutability": "nonpayable",
      "type": "function"
    },
    {
      "inputs": [],
      "name": "startGame",
      "outputs": [],
      "stateMutability": "nonpayable",
      "type": "function"
    },
    {
      "inputs": [],
      "name": "totalSpaceOnBoard",
      "outputs": [
        {
          "internalType": "uint8",
          "name": "",
          "type": "uint8"
        }
      ],
      "stateMutability": "view",
      "type": "function"
    }
  ],
  "bytecode": "0x608060405260008060006101000a81548160ff021916908360ff16021790555060008060016101000a81548160ff02191690831515021790555060008060026101000a81548160ff02191690831515021790555034801561005f57600080fd5b50610bb88061006f6000396000f3fe608060405234801561001057600080fd5b506004361061009e5760003560e01c8063aaa3621d11610066578063aaa3621d14610111578063afcb20f11461012f578063d65ab5f21461015f578063f71d96cb14610169578063fb9bdab4146101995761009e565b80632f6fe396146100a35780635c07a4b0146100c15780635e123ce4146100cb578063728fdffa146100e9578063837e7cc614610107575b600080fd5b6100ab6101b7565b6040516100b89190610673565b60405180910390f35b6100c96101ca565b005b6100d36103b6565b6040516100e09190610673565b60405180910390f35b6100f16103c9565b6040516100fe91906106aa565b60405180910390f35b61010f6103ce565b005b61011961052b565b60405161012691906106aa565b60405180910390f35b61014960048036038101906101449190610728565b610530565b60405161015691906106aa565b60405180910390f35b610167610550565b005b610183600480360381019061017e919061078b565b610608565b60405161019091906107c7565b60405180910390f35b6101a1610647565b6040516101ae91906106aa565b60405180910390f35b600060029054906101000a900460ff1681565b600460ff166001805490501115610216576040517f08c379a000000000000000000000000000000000000000000000000000000000815260040161020d9061083f565b60405180910390fd5b600060019054906101000a900460ff1615610266576040517f08c379a000000000000000000000000000000000000000000000000000000000815260040161025d906108ab565b60405180910390fd5b6000600260003373ffffffffffffffffffffffffffffffffffffffff1673ffffffffffffffffffffffffffffffffffffffff16815260200190815260200160002060009054906101000a900460ff1660ff16146102f8576040517f08c379a00000000000000000000000000000000000000000000000000000000081526004016102ef90610917565b60405180910390fd5b6001339080600181540180825580915050600190039060005260206000200160009091909190916101000a81548173ffffffffffffffffffffffffffffffffffffffff021916908373ffffffffffffffffffffffffffffffffffffffff1602179055506001600260003373ffffffffffffffffffffffffffffffffffffffff1673ffffffffffffffffffffffffffffffffffffffff16815260200190815260200160002060006101000a81548160ff021916908360ff160217905550565b600060019054906101000a900460ff1681565b600481565b600060019054906101000a900460ff1661041d576040517f08c379a000000000000000000000000000000000000000000000000000000000815260040161041490610983565b60405180910390fd5b600060029054906101000a900460ff161561046d576040517f08c379a0000000000000000000000000000000000000000000000000000000008152600401610464906109ef565b60405180910390fd5b600160008054906101000a900460ff1660ff168154811061049157610490610a0f565b5b9060005260206000200160009054906101000a900473ffffffffffffffffffffffffffffffffffffffff1673ffffffffffffffffffffffffffffffffffffffff163373ffffffffffffffffffffffffffffffffffffffff1614610529576040517f08c379a000000000000000000000000000000000000000000000000000000000815260040161052090610a8a565b60405180910390fd5b565b603481565b60026020528060005260406000206000915054906101000a900460ff1681565b600460ff166001805490501461059b576040517f08c379a000000000000000000000000000000000000000000000000000000000815260040161059290610af6565b60405180910390fd5b600060019054906101000a900460ff16156105eb576040517f08c379a00000000000000000000000000000000000000000000000000000000081526004016105e290610b62565b60405180910390fd5b6001600060016101000a81548160ff021916908315150217905550565b6001818154811061061857600080fd5b906000526020600020016000915054906101000a900473ffffffffffffffffffffffffffffffffffffffff1681565b60008054906101000a900460ff1681565b60008115159050919050565b61066d81610658565b82525050565b60006020820190506106886000830184610664565b92915050565b600060ff82169050919050565b6106a48161068e565b82525050565b60006020820190506106bf600083018461069b565b92915050565b600080fd5b600073ffffffffffffffffffffffffffffffffffffffff82169050919050565b60006106f5826106ca565b9050919050565b610705816106ea565b811461071057600080fd5b50565b600081359050610722816106fc565b92915050565b60006020828403121561073e5761073d6106c5565b5b600061074c84828501610713565b91505092915050565b6000819050919050565b61076881610755565b811461077357600080fd5b50565b6000813590506107858161075f565b92915050565b6000602082840312156107a1576107a06106c5565b5b60006107af84828501610776565b91505092915050565b6107c1816106ea565b82525050565b60006020820190506107dc60008301846107b8565b92915050565b600082825260208201905092915050565b7f4d6178696d756d20706c617965727320726561636865642e0000000000000000600082015250565b60006108296018836107e2565b9150610834826107f3565b602082019050919050565b600060208201905081810360008301526108588161081c565b9050919050565b7f47616d652068617320616c726561647920737461727465642e00000000000000600082015250565b60006108956019836107e2565b91506108a08261085f565b602082019050919050565b600060208201905081810360008301526108c481610888565b9050919050565b7f506c6179657220697320616c726561647920726567697374657265642e000000600082015250565b6000610901601d836107e2565b915061090c826108cb565b602082019050919050565b60006020820190508181036000830152610930816108f4565b9050919050565b7f47616d65206e6f742073746172746564207965742e0000000000000000000000600082015250565b600061096d6015836107e2565b915061097882610937565b602082019050919050565b6000602082019050818103600083015261099c81610960565b9050919050565b7f47616d652068617320656e6465642e0000000000000000000000000000000000600082015250565b60006109d9600f836107e2565b91506109e4826109a3565b602082019050919050565b60006020820190508181036000830152610a08816109cc565b9050919050565b7f4e487b7100000000000000000000000000000000000000000000000000000000600052603260045260246000fd5b7f4e6f7420796f7572207475726e2e000000000000000000000000000000000000600082015250565b6000610a74600e836107e2565b9150610a7f82610a3e565b602082019050919050565b60006020820190508181036000830152610aa381610a67565b9050919050565b7f4e656564203420706c617965727320746f2073746172742e0000000000000000600082015250565b6000610ae06018836107e2565b9150610aeb82610aaa565b602082019050919050565b60006020820190508181036000830152610b0f81610ad3565b9050919050565b7f47616d6520616c726561647920737461727465642e0000000000000000000000600082015250565b6000610b4c6015836107e2565b9150610b5782610b16565b602082019050919050565b60006020820190508181036000830152610b7b81610b3f565b905091905056fea2646970667358221220a7e1d6ca49db340b23e1744fa1a91af5a1ff6c7ae5a4336b2c9ac4b3552f5da864736f6c63430008180033",
  "linkReferences": {},
  "deployedLinkReferences": {}
}